:0400000074EF00F0A9
:100008005782FACF2FF0FBCF30F0E9CF31F0EACFAB
:1000180032F0E1CF33F0E2CF34F0D9CF35F0DACF98
:1000280036F0F3CF37F0F4CF38F0F6CF39F0F7CF1A
:100038003AF0F8CF3BF0F5CF3CF057C03DF058C050
:100048003EF059C03FF05AC040F0F2BAF2A403D0D3
:10005800C2EC08F01FD0F2AC1DD07AB47BA403D058
:1000680061EC09F017D07DB27EA203D096EC08F0BF
:1000780011D07AB27BA203D06DEC09F00BD09DB2FF
:100088009EA203D0FBEC08F005D09DB09EA002D044
:10009800ACEC08F040C05AF03FC059F03EC058F0F0
:1000A8003DC057F03CC0F5FF3BC0F8FF3AC0F7FF32
:1000B80039C0F6FF38C0F4FF37C0F3FF36C0DAFFA7
:1000C80035C0D9FF34C0E2FF33C0E1FF32C0EAFFD8
:1000D80031C0E9FF30C0FBFF2FC0FAFF5792110073
:1000E80053EF07F0F28EF28C1FEC08F07E0E000141
:1000F800766FFE0E776F1CEC03F03B0E0001766FF7
:10010800FE0E776F1CEC03F0730E0001766FFC0E89
:10011800776F1CEC03F0170E0001766FFF0E776FF8
:100128001CEC03F0320E0001766FFF0E776F1CECAB
:1001380003F0C3EC09F00009D8B497D1A0EC09F09A
:100148000001956F65D19C0EA025606FFF0EA1215F
:10015800616FEBEC07F0C60E0001766FFC0E776F4F
:10016800A0C078F0A1C079F01CEC03F07ED1640E39
:100178000001A025606F000EA121616FEBEC07F074
:100188009E0E0001766FFC0E776FA0C078F0A1C0BC
:1001980079F01CEC03F069D18D0E0001766FFF0E2B
:1001A800776F1CEC03F0B50E0001766FFF0E776FCA
:1001B8001CEC03F0780E0001766FFF0E776F1CECD5
:1001C80003F04D0E0001766FFF0E776F1CEC03F005
:1001D800610E0001766FFD0E776F1CEC03F0D00EF8
:1001E8000001766FFD0E776F1CEC03F0860E0001A0
:1001F800766FFD0E776F1CEC03F0AB0E0001766F87
:10020800FD0E776F1CEC03F05D0E0001766FFE0E9D
:10021800776F1CEC03F0A20E0001766FFF0E776F6C
:100228001CEC03F0D90E0001766FFF0E776F1CEC03
:1002380003F01BD1640E0001A225606F000EA321FC
:10024800616FD1EC07F03B0E0001766FFD0E776F02
:10025800A2C078F0A3C079F01CEC03F006D19C0E84
:100268000001A225606FFF0EA321616FD1EC07F09A
:10027800150E0001766FFD0E776FA2C078F0A3C04F
:1002880079F01CEC03F0F1D0000E566E640E0001FC
:100298009E25606F000E9F21616F05EC08F0DD0E52
:1002A8000001766FFE0E776F9EC078F09FC079F0E0
:1002B8001CEC03F0DAD0000E566E9C0E00019E2551
:1002C800606FFF0E9F21616F05EC08F0BE0E000104
:1002D800766FFE0E776F9EC078F09FC079F01CECA9
:1002E80003F0C3D0010E566E100E0001AC27270E86
:1002F800AD23000EAE23000EAF23180E766FFE0E50
:10030800776FACC078F0ADC079F0AEC07AF0AFC00E
:100318007BF01CEC03F0A9D0010E566E100E000104
:10032800AC5F270EAD5B000EAE5B000EAF5BF50E4B
:10033800766FFD0E776FACC078F0ADC079F0AEC0C7
:100348007AF0AFC07BF01CEC03F08FD0EE0E00010A
:10035800766FFC0E776FA8C078F0A9C079F0AAC0B4
:100368007AF0ABC07BF0ACC07CF0ADC07DF0AEC025
:100378007EF0AFC07FF01CEC03F0C3EC09F000097D
:10038800D8B4E4D7A0EC09F070D0F50E0001766F70
:10039800FF0E776F1CEC03F068D0BDEC09F0000984
:1003A800D8B419D098EC09F00001926F6F0E921929
:1003B800D8A407D0FA0E766FFF0E776F1CEC03F007
:1003C8000AD0FC0E0001766FFE0E776F92C078F0AF
:1003D800796B1CEC03F0C3EC09F00009D8B4DDD745
:1003E800A0EC09F042D0630E0001766FFF0E776F24
:1003F8001CEC03F03AD0FF0038D0C80E0001766F2D
:10040800FF0E776F95C078F0796B1CEC03F02DD058
:10041800000195513F0AD8B4BFD67A0AD8B4ADD7EF
:10042800030AD8B45FD70B0AD8B42ED71E0AD8B49B
:1004380001D7070AD8B49BD60E0AD8B4DCD73C0A31
:10044800D8B46AD70B0AD8B436D7020AD8B49DD71D
:100458001C0AD8B404D7070AD8B475D6010AD8B488
:10046800BAD70F0AD8B4BFD7C8D7BDEC09F000096E
:10047800D8B45FD698EC09F00001956FBBD0770E21
:10048800766FFF0E776F1CEC03F0EAEC08F00001C2
:10049800603B613BF00E611760510F0B6113F00E6A
:1004A800601760C090F061C091F04C0E9025606FAD
:1004B800040E9121616FD1EC07F03BD6770E000155
:1004C800766FFF0E776F1CEC03F0EAEC08F0000182
:1004D800603B613BF00E611760510F0B6113F00E2A
:1004E800601760C090F061C091F04C0E9025606F6D
:1004F800040E9121616FEBEC07F01BD6000E566ECF
:10050800770E0001766FFF0E776F1CEC03F0EAECB4
:1005180008F060C093F061C094F093C08CF094C070
:100528008DF000018C1F8D1F8C4B8D2B93C08EF08E
:1005380094C08FF08E3B8F3BF00E8F178E510F0BB0
:100548008F13F00E8E178C518E278D518F234C0EE2
:100558008E25936F040E8F21946F93C060F094C022
:1005680061F005EC08F0E5D5A8C0A4F0A9C0A5F095
:10057800AAC0A6F0ABC0A7F0DCD5A8C09AF0A9C065
:100588009BF0AAC09CF0ABC09DF0D3D5A8C096F054
:10059800A9C097F0AAC098F0ABC099F0CAD5010ECF
:1005A800566EA4C0ACF0A5C0ADF0A6C0AEF0A7C012
:1005B800AFF0BFD5010E566E9AC0ACF09BC0ADF03F
:1005C8009CC0AEF09DC0AFF0B4D5010E566E96C07B
:1005D800ACF097C0ADF098C0AEF099C0AFF0A9D517
:1005E8009E0E766FFE0E776F95C078F0796B1CECD7
:1005F80003F09FD500019551480AD8B4B5D7040A2D
:10060800D8B4BBD71E0AD8B4C1D73A0AD8B4C7D70A
:10061800040AD8B4CFD71C0AD8B431D7020AD8B440
:10062800D4D7010AD8B46AD7070AD8B447D7D8D7D5
:10063800780E0001896F000E8A6F0CD1250E8B1978
:10064800D8B404D08B51AFEC09F004D1000E0001EE
:10065800886F13D0888911D089C0D9FF8AC0DAFF82
:10066800DF508B6F020E8927000E8A238B51AFEC67
:1006780009F0F0D00001888D1ED076C0F6FF77C053
:10068800F7FF764B772BF86A0800F5CF8BF08B5184
:10069800000AD8B41200630AD8B4DED7070AD8B45F
:1006A8000AD00D0AD8B407D0050AD8B4D3D7190A86
:1006B800D8B4E0D7DBD788BD2ED088A90ED089C0A2
:1006C800D9FF8AC0DAFFDECF84F0DECF85F0DECF37
:1006D80086F0DECF87F0040E0ED089C0D9FF8AC01D
:1006E800DAFFDECF84F0DDCF85F0000E85BFFF0E88
:1006F800866F876F020E8927000E8A2387AF2DD059
:10070800030E8813871F861F851F846D000E85239F
:100718008623872322D088A90ED089C0D9FF8AC012
:10072800DAFFDECF84F0DECF85F0DECF86F0DECFD5
:1007380087F0040E0FD089C0D9FF8AC0DAFFDECF58
:1007480080F0DDCF81F080C084F081C085F0866BB9
:10075800876B020E8927000E8A23010E8B6F0A0E03
:100768008B19D8B41BD08B51040D4B0EF324F66EA5
:10077800FC0EF420F76EF86A000EF8220900F55016
:10078800845D0900F55085590900F550865909001E
:10079800F5508759D8A002D08B2BE1D788C080F0BC
:1007A800030E8017D8B403D02D0EAFEC09F000016A
:1007B8008B51826F836B82BF830743D082C080F0E6
:1007C80083C081F0D89080378137D89080378137BF
:1007D8004B0E8025F66EFC0E8121F76EF86A000E2E
:1007E800F8220900F5CF64F00900F5CF65F009009B
:1007F800F5CF66F00A00F5CF67F084C060F085C0D9
:1008080061F086C062F087C063F006EC06F060C055
:100818006DF061C06EF062C06FF063C070F00A0ED8
:100828000001716F000E726F000E736F000E746F0F
:10083800C3EC06F000016D51300F8B6F8B51AFEC9C
:1008480009F000018207D8A083078229B7E183292C
:10085800D8A4B4D776C0F6FF77C0F7FF0001764B6F
:10086800772BF86A0800F5CF8BF08B51D8B41200BB
:10087800E5D6190E2A6E000E2B6E06D1250E2C1801
:10088800D8B404D02C50E3EC09F0FED0000E296E49
:1008980012D0298810D02AC0D9FF2BC0DAFFDF5028
:1008A8002C6E020E2A26000E2B222C50E3EC09F0A7
:1008B800EBD0298C1ED017C0F6FF18C0F7FF174AD7
:1008C800182AF86A0800F5CF2CF02C50000AD8B482
:1008D8001200630AD8B4DFD7070AD8B40AD00D0AC1
:1008E800D8B407D0050AD8B4D4D7190AD8B4E1D7F0
:1008F800DCD729BC2ED029A80ED02AC0D9FF2BC0FE
:10090800DAFFDECF25F0DECF26F0DECF27F0DECF10
:1009180028F0040E0ED02AC0D9FF2BC0DAFFDECF94
:1009280025F0DDCF26F0000E26BEFF0E276E286EBE
:10093800020E2A26000E2B2228AE2DD0030E2912D5
:10094800281E271E261E256C000E26222722282256
:1009580022D029A80ED02AC0D9FF2BC0DAFFDECFBB
:1009680025F0DECF26F0DECF27F0DECF28F0040E0C
:100978000FD02AC0D9FF2BC0DAFFDECF21F0DDCFA0
:1009880022F021C025F022C026F0276A286A020E2C
:100998002A26000E2B22010E2C6E0A0E2C18D8B413
:1009A8001BD02C50040D4B0EF324F66EFC0EF420D5
:1009B800F76EF86A000EF8220900F550255C090068
:1009C800F55026580900F55027580900F5502858C1
:1009D800D8A002D02C2AE1D729C021F0030E211675
:1009E800D8B403D02D0EE3EC09F02C50236E246A02
:1009F80023BE240641D023C021F024C022F0D89081
:100A080021362236D890213622364B0E2124F66E16
:100A1800FC0E2220F76EF86A000EF8220900F5CFC6
:100A280005F00900F5CF06F00900F5CF07F00A0038
:100A3800F5CF08F025C001F026C002F027C003F06A
:100A480028C004F048EC06F001C00EF002C00FF018
:100A580003C010F004C011F00A0E126E000E136EDF
:100A6800000E146E000E156EF7EC06F00E50300FE7
:100A78002C6E2C50E3EC09F02306D8A0240623287A
:100A8800BAE12428D8A4B7D717C0F6FF18C0F7FFD3
:100A9800174A182AF86A0800F5CF2CF02C50D8B459
:100AA8001200ECD65604D8A472D0ACC003F0ADC086
:100AB80004F0AEC005F0AFC006F0031E041E051E0C
:100AC800061E032A000E0422052206220001A85150
:100AD8000324076EA9510420086EAA510520096E47
:100AE800AB5106200A6E0ABE11D00A50091006E161
:100AF800F50E075C010E0858D8A008D0F40E076E52
:100B0800010E086E000E096E000E0A6E0AAE12D0B3
:100B18000C0E075CFE0E0858FF0E0958FF0E0A5807
:100B2800D8B008D00C0E076EFE0E086EFF0E096EC8
:100B3800FF0E0A6E0ABE08D00A500910081010E10C
:100B4800650E075CD8B00CD00AAE1BD09C0E075CB3
:100B5800FF0E0858FF0E0958FF0E0A58D8B011D0DA
:100B680007C003F008C004F0031E041E034A042A49
:100B7800B80E0324016E0B0E0420026E38EC08F048
:100B880006D00B0E026EB80E016E38EC08F00001AC
:100B98009A51A85D9B51A9599C51AA59AB51800AF9
:100BA800036E9D51800A0358D8B00CD0B80E9E5DD4
:100BB8000B0E9F59D8B006D00B0E026EB80E016E00
:100BC80038EC08F00001A851965DA9519759AA512F
:100BD80098599951800A036EAB51800A0358D8B0CE
:100BE8000CD0B90E9E5D0B0E9F59D8A006D00B0EE7
:100BF800026EB80E016E38EC08F0000EEDEC09F04C
:100C08009E921200000E0001686F000E696F000EC0
:100C18006A6F000E6B6F6451651166116711D8B465
:100C28002AD0010E6C6F06D0D890643765376637C6
:100C380067376C2B67AFF8D7D890683769376A374A
:100C48006B376451605D65516159665162596751EE
:100C58006359D8A009D06451605F6551615B6651E2
:100C6800625B6751635B6881D8906733663365332D
:100C780064336C2FE1D768C060F069C061F06AC066
:100C880062F06BC063F01200000E096E000E0A6E6F
:100C9800000E0B6E000E0C6E0550061007100810A3
:100CA800D8B42AD0010E0D6E06D0D8900536063677
:100CB800073608360D2A08AEF8D7D89009360A360E
:100CC8000B360C360550015C065002580750035885
:100CD80008500458D8A009D00550015E0650025AA1
:100CE8000750035A0850045A0980D890083207322E
:100CF800063205320D2EE1D709C001F00AC002F014
:100D08000BC003F00CC004F012005350D8A413D049
:100D18008982A2C02DF0A3C02EF02D1E2E1E2D4AB2
:100D28002E2AFF0E2D24016EFF0E2E20026EE8ECF7
:100D380009F0010E08D08992630E026EBF0E016E93
:100D4800E8EC09F0000E536E5604D8A416D0E70E4E
:100D5800176EFF0E186EACC019F0ADC01AF0AEC019
:100D68001BF0AFC01CF0A8C01DF0A9C01EF0AAC09F
:100D78001FF0ABC020F03DEC04F0F294120000012B
:100D88007151721173117411D8B424D0010E756F9A
:100D980006D0D8907137723773377437752B74AFA4
:100DA800F8D771516D5D72516E5973516F59745105
:100DB8007059D8A008D071516D5F72516E5B735134
:100DC8006F5B7451705BD8907433733372337133C3
:100DD800752FE7D76DC06DF06EC06EF06FC06FF005
:100DE80070C070F012001250131014101510D8B4FF
:100DF80024D0010E166E06D0D8901236133614364B
:100E08001536162A15AEF8D712500E5C13500F5827
:100E18001450105815501158D8A008D012500E5E12
:100E280013500F5A1450105A1550115AD8901532A1
:100E3800143213321232162EE7D70EC00EF00FC03E
:100E48000FF010C010F011C011F012000F0157512F
:100E58000F0B050AD8A41AD05751F00B0409576F85
:100E6800010E556E5450D8A407D0010E0001A827D2
:100E7800000EA923AA2308D0FF0E0001A827FF0E01
:100E8800A923FF0EAA23FF0EAB2307D00F0157514A
:100E9800F00B0509576F000E556E7B921200500E2D
:100EA800F66E130EF76E000EF86E00EE96F010EE6A
:100EB8000EF00900F5CFEEFFE550E150FAE100EE43
:100EC800A4F00C0EEE6AE806FDE100EE41F0160E05
:100ED800EE6AE806FDE157905792000176EF00F0C0
:100EE8005150D8A413D089849EC003F09FC004F049
:100EF800031E041E034A042AFF0E0324016EFF0E7C
:100F08000420026E1AEC09F0010E08D08994630ED1
:100F1800026EBF0E016E1AEC09F0000E516E7E9241
:100F280012005250D8A413D08980A0C003F0A1C0E9
:100F380004F0031E041E034A042AFF0E0324016E54
:100F4800FF0E0420026E53EC09F0010E08D08990C0
:100F5800630E026EBF0E016E53EC09F0000E526E66
:100F68009E901200D59CD768FE0ED66ED650D7CF6D
:100F780062F00001636B62C063F0626B62114D6ED8
:100F880063514E6EF294F28A120E606F0D0E616F0D
:100F9800DEEC09F0920ED56E12004C0E0001605D79
:100FA800040E6159D8B004D0040E616F4C0E09D0FC
:100FB800250E605D130E6159D8A004D0130E616F21
:100FC800240E606F60C0A2F061C0A3F012004C0E46
:100FD8000001605D040E6159D8B004D0040E616F41
:100FE8004C0E09D0250E605D130E6159D8A004D0AF
:100FF800130E616F240E606F60C0A0F061C0A1F095
:101008001200C40E0001605D090E6159D8B004D009
:10101800090E616FC40E09D0AD0E605D0D0E6159E9
:10102800D8A004D00D0E616FAC0E606F60C09EF04A
:1010380061C09FF01200F1EC09F069EC08F08FEC48
:1010480009F037EC09F045EC09F029EC09F051EC0E
:1010580008F00BEC09F080EC08F0B6EC07F084EC33
:1010680009F079EC09F01200C40E015C090E02586F
:10107800D8B004D0090E026EC40E09D0AD0E015CC2
:101088000D0E0258D8A004D00D0E026EAC0E016EE3
:1010980001C09EF002C09FF01200000E0F014D6FBC
:1010A800E00E506F000E4F6F4FCF45F050CF46F017
:1010B8007E927D82E80E0001606F0E0E616FCFECAC
:1010C80009F0310E0F014E6F1200000E896E000EEE
:1010D8008A6E000E8B6EF80E926EBF0E936EBF0E68
:1010E800946E3C0E0F013A6F3E0E396F2F0E386F1B
:1010F800000E616EF18E1200000ECC6E630ECF6E84
:10110800C00ECE6ECECF49F0CFCF4AF09E909D80D4
:101118002A0E0001606F0F0E616FD9EC09F0310ED5
:10112800CD6E12007E9245C001F046C002F01AEC66
:1011380009F043504410D8B4120001D81200050039
:10114800FA6E4350FD6E4450FE6EFF6AFA5012006C
:101158009E9049C001F04AC002F053EC09F0475094
:101168004810D8B4120001D812000500FA6E475092
:10117800FD6E4850FE6EFF6AFA501200F2944E500F
:10118800D76E4DC0D6FF4F505010D8B4120001D8BA
:1011980012000500FA6E4F50FD6E5050FE6EFF6A49
:1011A800FA5012000F0154510F0B050AD8A406D0AB
:1011B8005451F00B0409546F010E05D05451F00B33
:1011C8000509546F000E546E7B941200BDEC09F0B3
:1011D8000009D8B4FBD798EC09F00001626F62519E
:1011E800636F646B63C060F064C061F012009E922C
:1011F80041504210D8B4120001D812000500FA6E0E
:101208004150FD6E4250FE6EFF6AFA501200BB68F4
:10121800000EBC6E9E929D82AC0E0001606F0A0E9D
:10122800616FD4EC09F0060EBA6E12000F014EA5DC
:1012380007D04E910250506F01C04FFF4E811200EF
:101248000250506F01C04FFF1200000EB46E000E26
:10125800B36E000EB26EB2CF4BF0B3CF4CF0A1928A
:10126800010EB16E1200050E0F01546F000E556F7E
:10127800000E566F4851F30B0409486F7B947A842B
:101288001200050E0F01576F000E586F000E596FB0
:101298004851FC0B0109486F7B927A821200CDA459
:1012A80007D0CD900250CF6E01C0CEFFCD80120086
:1012B8000250CF6E01C0CEFF12007B9455CF03F0D1
:1012C80056CF04F003C001F004C002F0D6EC08F0D9
:1012D80012007B9258CF03F059CF04F003C001F0FD
:1012E80004C002F02AEC07F01200080E706E900E8F
:1012F800716E240E726E8A0E756E000E766E120076
:10130800080EB86E900EAB6E240EAC6E8A0EAF6EE1
:10131800000EB06E1200700ED36E040ED26E400E28
:101328009B6ED2BE1200FDD79EAAFED7ABA202D0FA
:10133800AB98AB88AE501200A4AAFED771A202D017
:101348007198718874501200A08601006079FEFFC0
:10135800B80BB80BB80B0001616F00016151B6EC16
:1013680009F012000001606FA4A8FED760C073FFE7
:1013780012009EAA02D0010E1200000E1200A4AAAA
:1013880002D0010E1200000E1200016EA4A8FED7B2
:1013980001C073FF120060C043F061C044F0120046
:1013A80060C041F061C042F0120060C047F061C007
:1013B80048F0120060C04FF061C050F01200026E99
:1013C8000250C9EC09F012000250D76E01C0D6FFD6
:0E13D8001200016E01C0BCFF1200D09E120078
:10FC4A0000010000000A00000064000000E8030050
:10FC5A000010270000A086010040420F00809698FD
:10FC6A000000E1F50500CA9A3B436F6E6E65637446
:10FC7A002052413220746F20746865204D6F746F72
:10FC8A007220436F6E74726F6C6C6572204461747B
:10FC9A00610D0A0044656372656D656E74696E670D
:10FCAA0020506974636820536572766F20506F73B1
:10FCBA006974696F6E3A2025750D0A00496E637280
:10FCCA00656D656E74696E67205069746368205348
:10FCDA006572766F20506F736974696F6E3A20256A
:10FCEA00750D0A00456E636F64657220506F736903
:10FCFA0074696F6E3A20256C642020205365745015
:10FD0A006F696E743A256C640D0A00446563726506
:10FD1A006D656E74696E67205961772053657276D6
:10FD2A006F20506F736974696F6E3A2025750D0ADA
:10FD3A0000496E6372656D656E74696E67205961FC
:10FD4A007720536572766F20506F736974696F6E8E
:10FD5A003A2025750D0A004D2F6D20496E63726594
:10FD6A006173652F4465637265617365204D6F74B5
:10FD7A006F72205370656564200D0A004520707209
:10FD8A00696E7420656E636F6465722076616C7546
:10FD9A00657320746F20636F6E736F6C65200D0A34
:10FDAA00006F207072696E7420656E636F6465728D
:10FDBA002076616C75657320746F20636F6E736F44
:10FDCA006C65200D0A00462F66204D6F7665204D22
:10FDDA006F746F722031303030302F2D3130303027
:10FDEA0030207469636B73200D0A00446563726581
:10FDFA006D656E74696E67204D6F746F72205365FE
:10FE0A0074706F696E743A20256C640D0A00496E2D
:10FE1A006372656D656E74696E67204D6F746F727B
:10FE2A0020536574706F696E743A20256C640D0AEC
:10FE3A0000436F6E6E6563742052413020746F20E8
:10FE4A00506974636820536572766F2044617461E7
:10FE5A000D0A0075207072696E7420696E636F6D89
:10FE6A00696E67204555534152543120646174616B
:10FE7A00200D0A00436F6E6E656374205241312073
:10FE8A00746F2059617720536572766F20446174CC
:10FE9A00610D0A00556E6B6E6F776E206F72204986
:10FEAA006E76616C696420436F6D6D616E642025A6
:10FEBA00630D0A0044656372656D656E74696E67E9
:10FECA00204D6F746F722053706565643A202575F2
:10FEDA000D0A00496E6372656D656E74696E6720FE
:10FEEA004D6F746F722053706565643A2025750DE5
:10FEFA000A00526563656976656420257520667215
:10FF0A006F6D20455553415254310D0A00436F6EAF
:10FF1A006E6563742052423020746F20456E636FA1
:10FF2A0064657220410D0A00436F6E6E656374202A
:10FF3A0052413420746F20456E636F6465722042AB
:10FF4A000D0A00542F74206D6F76652054696C7405
:10FF5A0020536572766F0D0A000A0A0A0A0A0A0A0B
:10FF6A000A0A0A0A0A0A0A0A0A0A0A0A0A00532F83
:10FF7A0073206D6F76652059617720536572766FAD
:10FF8A000D0A00446562756720436F6E736F6C6576
:10FF9A002048656C700D0A007A20636C65617220D6
:10FFAA007465726D696E616C0D0A003F2053686F4B
:10FFBA00772048656C70204D656E750D0A00556E88
:10FFCA006B6E6F776E206B65792025630D0A005A78
:10FFDA00205265736574205069630D0A00256C64AC
:10FFEA002C20202020256C640D0A00206B0D0A00AD
:06FFFA006F6B0D0A000010
:020000040020DA
:08000000FFFFFFFFFFFFFFFF00
:020000040030CA
:0E000000FF281F3CFFBF85FF0FC00FE00F4021
:00000001FF
