:0400000062EF00F0BB
:100008004682FACF05F0FBCF06F0E9CF07F0EACF3A
:1000180008F0E1CF09F0E2CF0AF0D9CF0BF0DACF40
:100028000CF0F3CF0DF0F4CF0EF0F6CF0FF0F7CFC2
:1000380010F0F8CF11F0F5CF12F046C013F047C01A
:1000480014F048C015F049C016F0F2BAF2A403D073
:1000580054EC03F00DD0F2AC0BD07AB47BA403D0EF
:10006800B9EC03F005D07AB27BA202D0C5EC03F05C
:1000780016C049F015C048F014C047F013C046F048
:1000880012C0F5FF11C0F8FF10C0F7FF0FC0F6FF50
:100098000EC0F4FF0DC0F3FF0CC0DAFF0BC0D9FF90
:1000A8000AC0E2FF09C0E1FF08C0EAFF07C0E9FF94
:1000B80006C0FBFF05C0FAFF4692110026EF03F0C9
:1000C8002F0E0001676F000E686F0BD1250E69199E
:1000D800D8B404D0695112EC04F003D1000E000129
:1000E800666F13D0668911D067C0D9FF68C0DAFF80
:1000F800DF50696F020E6727000E6823695112EC02
:1001080004F0EFD00001668D1ED02DC0F6FF2EC082
:10011800F7FF2D4A2E2AF86A0800F5CF69F06951D1
:10012800000AD8B41200630AD8B4DED7070AD8B4D4
:100138000AD00D0AD8B407D0050AD8B4D3D7190AFB
:10014800D8B4E0D7DBD766BD2ED066A90ED067C07D
:10015800D9FF68C0DAFFDECF62F0DECF63F0DECF12
:1001680064F0DECF65F0040E0ED067C0D9FF68C01A
:10017800DAFFDECF62F0DDCF63F0000E63BFFF0E63
:10018800646F656F020E6727000E682365AF2DD078
:10019800030E6613651F641F631F626D000E6323E1
:1001A8006423652322D066A90ED067C0D9FF68C032
:1001B800DAFFDECF62F0DECF63F0DECF64F0DECFB1
:1001C80065F0040E0FD067C0D9FF68C0DAFFDECF34
:1001D80033F0DDCF34F033C062F034C063F0646BC9
:1001E800656B020E6727000E6823010E696F0A0E01
:1001F8006919D8B41BD06951040DDD0EF324F66ECD
:10020800FE0EF420F76EF86A000EF8220900F55089
:10021800625D0900F55063590900F55064590900F9
:10022800F5506559D8A002D0692BE1D766C033F0E4
:10023800030E3316D8B403D02D0E12EC04F00001CF
:100248006951606F616B60BF610742D060C033F075
:1002580061C034F0D89033363436D89033363436DB
:10026800DD0E3324F66EFE0E3420F76EF86A000EAB
:10027800F8220900F5CF1BF00900F5CF1CF00900A2
:10028800F5CF1DF00A00F5CF1EF062C017F063C06D
:1002980018F064C019F065C01AF038EC02F017C005
:1002A80024F018C025F019C026F01AC027F00A0E4D
:1002B800286E000E296E000E2A6E000E2B6E79EC49
:1002C80002F02450300F0001696F695112EC04F0FC
:1002D80000016007D8A061076029B8E16129D8A4A6
:1002E800B5D72DC0F6FF2EC0F7FF2D4A2E2AF86A83
:1002F8000800F5CF69F000016951D8B41200E6D6BC
:10030800F28EF28C7CEC03F006EC04F00009D8B411
:10031800FBD7F0EC03F0356E8DD0490E2D6EFF0E35
:100328002E6E64EC00F0800E2D6EFF0E2E6E64ECC7
:1003380000F09B0E2D6EFF0E2E6E64EC00F0E4D7DD
:10034800640E4424176E000E4520186E0DEC03F061
:10035800270E2D6EFF0E2E6E44C02FF045C030F0D4
:1003680064EC00F0D1D79C0E4424176EFF0E452094
:10037800186E0DEC03F0050E2D6EFF0E2E6E44C0A8
:100388002FF045C030F064EC00F0BED7B60E2D6EED
:10039800FF0E2E6E37C02FF038C030F039C031F064
:1003A8003AC032F064EC00F006EC04F00009D8B46E
:1003B800EDD7F0EC03F0A8D7F40E2D6EFF0E2E6EDD
:1003C80064EC00F0A1D70CEC04F00009D8B417D005
:1003D800F8EC03F0366E6F0E3618D8A407D0F90E75
:1003E8002D6EFF0E2E6E64EC00F009D0650E2D6E9A
:1003F800FF0E2E6E36C02FF0306A64EC00F006EC6B
:1004080004F00009D8B4DFD7F0EC03F07DD7CE0EA6
:100418002D6EFF0E2E6E64EC00F076D7FF0074D7B9
:10042800E30E2D6EFF0E2E6E35C02FF0306A64EC91
:1004380000F06AD735503F0AD8B46FD77A0AD8B4D3
:10044800B3D7160AD8B47CD7090AD8B4E7D7350A7F
:10045800D8B4B2D71C0AD8B486D7060AD8B4CFD72E
:100468000F0AD8B4D4D7DCD7000E1F6E000E206E4A
:10047800000E216E000E226E1B501C101D101E1047
:10048800D8B42AD0010E236E06D0D8901B361C365D
:100498001D361E36232A1EAEF8D7D8901F362036B2
:1004A800213622361B50175C1C5018581D501958FD
:1004B8001E501A58D8A009D01B50175E1C50185A45
:1004C8001D50195A1E501A5A1F80D8901E321D32BC
:1004D8001C321B32232EE1D71FC017F020C018F0A2
:1004E80021C019F022C01AF01200285029102A1031
:1004F8002B10D8B424D0010E2C6E06D0D8902836F4
:1005080029362A362B362C2A2BAEF8D72850245CCD
:10051800295025582A5026582B502758D8A008D09B
:100528002850245E2950255A2A50265A2B50275ADB
:10053800D8902B322A32293228322C2EE7D724C0E1
:1005480024F025C025F026C026F027C027F0120089
:100558000F0157510F0B050AD8A418D05751F00BAB
:100568000409576F010E436E4250D8A406D0010EFD
:100578003726000E3822392207D0FF0E3726FF0E05
:100588003822FF0E3922FF0E3A2206D05751F00BBF
:100598000509576F000E436E7B9212004150D8A494
:1005A80013D0898244C003F045C004F0031E041E22
:1005B800034A042AFF0E0324016EFF0E0420026E74
:1005C8001CEC04F0010E08D08992630E026EBF0E77
:1005D800016E1CEC04F0000E416EF2941200D59CE2
:1005E800D768FE0ED66ED650D7CF19F01A6A19C042
:1005F8001AF0196A19103D6E1A503E6EF294F28A7A
:10060800A40E176E050E186E17EC04F0920ED56E38
:100618001200520E175C040E1858D8B004D0040EFD
:10062800186E520E09D0250E175C130E1858D8A054
:1006380004D0130E186E240E176E17C044F018C09D
:1006480045F01200460EF66E080EF76E000EF86EB4
:100658000900F5CF44F00900F5CF45F000EE37F07A
:100668000D0EEE6AE806FDE146904692000184EF21
:1006780001F0000E896E000E8A6E000E8B6EFD0E64
:10068800926EBF0E936EBF0E946E3C0E0F013A6FC2
:100698003E0E396F2F0E386F000E616EF18E12000C
:1006A800F2943E50D76E3DC0D6FF3F504010D8B4AC
:1006B800120001D812000500FA6E3F50FD6E40503E
:1006C800FE6EFF6AFA5012000F0154510F0B050A13
:1006D800D8A406D05451F00B0409546F010E05D06C
:1006E8005451F00B0509546F000E426E7B941200B2
:1006F80021EC04F03DEC03F0E7EC03F0ABEC03F085
:100708009DEC03F08FEC03F0F3EC02F0DCEC03F06B
:10071800D1EC03F01200000EB46E000EB36E000EA2
:10072800B26EB2CF3BF0B3CF3CF0A192010EB16EE6
:100738001200050E0F01546F000E556F000E566F14
:100748004851F30B0409486F7B947A841200050E14
:100758000F01576F000E586F000E596F4851FC0B70
:100768000109486F7B927A8212007B9455CF03F07F
:1007780056CF04F003C001F004C002F068EC03F0A7
:1007880012007B9258CF03F059CF04F003C001F058
:1007980004C002F0ACEC02F01200080E706E900E6D
:1007A800716E240E726E820E756E060E766E1200D3
:1007B800080EB86E900EAB6E240EAC6E820EAF6E45
:1007C800060EB06E1200700ED36E040ED26E400E7E
:1007D8009B6ED2BE1200FDD7A4AAFED771A202D08A
:1007E80071987188745012009EAAFED7ABA202D0ED
:1007F800AB98AB88AE501200176EA4A8FED717C0EE
:1008080073FF1200A4AA02D0010E1200000E1200FB
:100818009EAA02D0010E1200000E1200186E185087
:1008280000EC04F0120017C03FF018C040F01200AE
:100838000250D76E01C0D6FF1200D09E1200B80B2E
:10FEDC0000010000000A00000064000000E80300BC
:10FEEC000010270000A086010040420F0080969869
:10FEFC000000E1F50500CA9A3B44656372656D65C7
:10FF0C006E74696E6720536572766F20506F7369DB
:10FF1C0074696F6E3A2025750D0A00496E6372651F
:10FF2C006D656E74696E6720536572766F20506FC5
:10FF3C00736974696F6E3A2025750D0A00436F6EF4
:10FF4C006E6563742052413120746F205365727654
:10FF5C006F20446174610D0A0052656369657665B2
:10FF6C00642025752066726F6D204555534152549F
:10FF7C00310D0A00436F6E6E65637420524230205F
:10FF8C00746F20456E636F64657220410D0A0043E7
:10FF9C006F6E6E6563742052413420746F20456E11
:10FFAC00636F64657220420D0A00456E636F646571
:10FFBC007220506F736974696F6E3A20256C640DF2
:10FFCC000A000A0A0A0A0A0A0A0A0A0A0A0A0A0A8F
:10FFDC000A0A0A0A0A0A00556E6B6E6F776E206B5E
:10FFEC0065792025630D0A00206B0D0A006F6B0DDF
:03FFFC000A0000F8
:020000040020DA
:08000000FFFFFFFFFFFFFFFF00
:020000040030CA
:0E000000FF281F3CFFBF85FF0FC00FE00F4021
:00000001FF
