:0400000062EF00F0BB
:100008004582FACF05F0FBCF06F0E9CF07F0EACF3B
:1000180008F0E1CF09F0E2CF0AF0D9CF0BF0DACF40
:100028000CF0F3CF0DF0F4CF0EF0F6CF0FF0F7CFC2
:1000380010F0F8CF11F0F5CF12F045C013F046C01C
:1000480014F047C015F048C016F0F2BAF2A403D075
:100058002CEC03F00DD0F2AC0BD07AB47BA403D017
:100068008FEC03F005D07AB27BA202D09BEC03F0B0
:1000780016C048F015C047F014C046F013C045F04C
:1000880012C0F5FF11C0F8FF10C0F7FF0FC0F6FF50
:100098000EC0F4FF0DC0F3FF0CC0DAFF0BC0D9FF90
:1000A8000AC0E2FF09C0E1FF08C0EAFF07C0E9FF94
:1000B80006C0FBFF05C0FAFF45921100FFEF02F0F2
:1000C8002F0E0001676F000E686F0BD1250E69199E
:1000D800D8B404D06951CFEC03F003D1000E00016D
:1000E800666F13D0668911D067C0D9FF68C0DAFF80
:1000F800DF50696F020E6727000E68236951CFEC45
:1001080003F0EFD00001668D1ED02DC0F6FF2EC083
:10011800F7FF2D4A2E2AF86A0800F5CF69F06951D1
:10012800000AD8B41200630AD8B4DED7070AD8B4D4
:100138000AD00D0AD8B407D0050AD8B4D3D7190AFB
:10014800D8B4E0D7DBD766BD2ED066A90ED067C07D
:10015800D9FF68C0DAFFDECF62F0DECF63F0DECF12
:1001680064F0DECF65F0040E0ED067C0D9FF68C01A
:10017800DAFFDECF62F0DDCF63F0000E63BFFF0E63
:10018800646F656F020E6727000E682365AF2DD078
:10019800030E6613651F641F631F626D000E6323E1
:1001A8006423652322D066A90ED067C0D9FF68C032
:1001B800DAFFDECF62F0DECF63F0DECF64F0DECFB1
:1001C80065F0040E0FD067C0D9FF68C0DAFFDECF34
:1001D80033F0DDCF34F033C062F034C063F0646BC9
:1001E800656B020E6727000E6823010E696F0A0E01
:1001F8006919D8B41BD06951040DFD0EF324F66EAD
:10020800FE0EF420F76EF86A000EF8220900F55089
:10021800625D0900F55063590900F55064590900F9
:10022800F5506559D8A002D0692BE1D766C033F0E4
:10023800030E3316D8B403D02D0ECFEC03F0000113
:100248006951606F616B60BF610742D060C033F075
:1002580061C034F0D89033363436D89033363436DB
:10026800FD0E3324F66EFE0E3420F76EF86A000E8B
:10027800F8220900F5CF1BF00900F5CF1CF00900A2
:10028800F5CF1DF00A00F5CF1EF062C017F063C06D
:1002980018F064C019F065C01AF011EC02F017C02C
:1002A80024F018C025F019C026F01AC027F00A0E4D
:1002B800286E000E296E000E2A6E000E2B6E52EC70
:1002C80002F02450300F0001696F6951CFEC03F040
:1002D80000016007D8A061076029B8E16129D8A4A6
:1002E800B5D72DC0F6FF2EC0F7FF2D4A2E2AF86A83
:1002F8000800F5CF69F000016951D8B41200E6D6BC
:10030800F28EF28C54EC03F0C9EC03F00009D8B477
:10031800FBD7BBEC03F0356E69D0690E2D6EFF0E6E
:100328002E6E64EC00F0850E2D6EFF0E2E6E64ECC2
:1003380000F0A00E2D6EFF0E2E6E64EC00F0E4D7D8
:10034800640E4324176E000E4420186EE6EC02F08B
:10035800470E2D6EFF0E2E6E43C02FF044C030F0B6
:1003680064EC00F0D1D79C0E4324176EFF0E442096
:10037800186EE6EC02F0250E2D6EFF0E2E6E43C0B1
:100388002FF044C030F064EC00F0BED7BB0E2D6EE9
:10039800FF0E2E6E36C02FF037C030F038C031F067
:1003A80039C032F064EC00F0C9EC03F00009D8B4AD
:1003B800EDD7BBEC03F0A8D7F90E2D6EFF0E2E6E0D
:1003C80064EC00F0A1D7D30E2D6EFF0E2E6E64ECF8
:1003D80000F09AD7FF0098D7E80E2D6EFF0E2E6E0C
:1003E80035C02FF0306A64EC00F08ED735503F0AE4
:1003F800D8B493D77A0AD8B4D7D7160AD8B4A0D71E
:10040800090AD8B4E7D7350AD8B4D6D71C0AD8B45D
:10041800AAD7090AD8B4D7D7DFD7000E1F6E000EA7
:10042800206E000E216E000E226E1B501C101D1037
:100438001E10D8B42AD0010E236E06D0D8901B36D1
:100448001C361D361E36232A1EAEF8D7D8901F3606
:100458002036213622361B50175C1C5018581D5068
:1004680019581E501A58D8A009D01B50175E1C5096
:10047800185A1D50195A1E501A5A1F80D8901E32E9
:100488001D321C321B32232EE1D71FC017F020C0AB
:1004980018F021C019F022C01AF0120028502910B3
:1004A8002A102B10D8B424D0010E2C6E06D0D89068
:1004B800283629362A362B362C2A2BAEF8D7285040
:1004C800245C295025582A5026582B502758D8A044
:1004D80008D02850245E2950255A2A50265A2B50D5
:1004E800275AD8902B322A32293228322C2EE7D795
:1004F80024C024F025C025F026C026F027C027F008
:1005080012000F0157510F0B050AD8A418D05751E4
:10051800F00B0409576F010E426E4150D8A406D063
:10052800010E3626000E3722382207D0FF0E362657
:10053800FF0E3722FF0E3822FF0E392206D0575100
:10054800F00B0509576F000E426E7B921200405067
:10055800D8A413D0898243C003F044C004F0031E1A
:10056800041E034A042AFF0E0324016EFF0E042012
:10057800026ED9EC03F0010E08D08992630E026E68
:10058800BF0E016ED9EC03F0000E406EF29412001B
:10059800D59CD768FE0ED66ED650D7CF19F01A6AFA
:1005A80019C01AF0196A19103C6E1A503D6EF2946F
:1005B800F28A560E176E050E186ED4EC03F0920EE2
:1005C800D56E1200520E175C040E1858D8B004D01D
:1005D800040E186E520E09D0250E175C130E18580B
:1005E800D8A004D0130E186E240E176E17C043F04F
:1005F80018C044F01200C00EF66E070EF76E000E1B
:10060800F86E0900F5CF43F00900F5CF44F000EE8D
:1006180036F00D0EEE6AE806FDE1459045920001C0
:1006280084EF01F0000E896E000E8A6E000E8B6E4C
:10063800FD0E926EBF0E936E9468FC0E0F013A6F1A
:100648003E0E396F2F0E386F000E616EF18E12005C
:10065800F2943D50D76E3CC0D6FF3E503F10D8B400
:10066800120001D812000500FA6E3E50FD6E3F5090
:10067800FE6EFF6AFA5012000F0154510F0B050A63
:10068800D8A406D05451F00B0409546F010E05D0BC
:100698005451F00B0509546F000E416E7B94120003
:1006A800DEEC03F016EC03F0B2EC03F073EC03F0AD
:1006B80081EC03F065EC03F0CCEC02F0A7EC03F05E
:1006C8001200000EB46E000EB36E000EB26EB2CF02
:1006D8003AF0B3CF3BF0A192010EB16E1200050EB5
:1006E8000F01546F000E556F000E566F4851F30BF3
:1006F8000409486F7B947A841200050E0F01576F26
:10070800000E586F000E596F4851FC0B0109486FD5
:100718007B927A8212007B9455CF03F056CF04F077
:1007280003C001F004C002F040EC03F012007B9219
:1007380058CF03F059CF04F003C001F004C002F011
:1007480085EC02F01200080E706E900E716E240E89
:10075800726E820E756E060E766E1200700ED36E75
:10076800040ED26E400E9B6ED2BE1200FDD7A4AA14
:10077800FED771A202D07198718874501200176E5A
:10078800A4A8FED717C073FF1200A4AA02D0010EB6
:100798001200000E1200186E1850C3EC03F012007D
:1007A80017C03EF018C03FF012000250D76E01C0CB
:0A07B800D6FF1200D09E1200B80B0D
:10FEFC0000010000000A00000064000000E803009C
:10FF0C000010270000A086010040420F0080969848
:10FF1C000000E1F50500CA9A3B44656372656D65A6
:10FF2C006E74696E6720536572766F20506F7369BB
:10FF3C0074696F6E3A2025750D0A00496E637265FF
:10FF4C006D656E74696E6720536572766F20506FA5
:10FF5C00736974696F6E3A2025750D0A00436F6ED4
:10FF6C006E6563742052413120746F205365727634
:10FF7C006F20446174610D0A00436F6E6E6563748B
:10FF8C002052423020746F20456E636F646572207E
:10FF9C00410D0A00436F6E6E65637420524134202C
:10FFAC00746F20456E636F64657220420D0A0045C4
:10FFBC006E636F64657220506F736974696F6E3A0B
:10FFCC0020256C640D0A000A0A0A0A0A0A0A0A0A9F
:10FFDC000A0A0A0A0A0A0A0A0A0A0A00556E6B6E0B
:10FFEC006F776E206B65792025630D0A00206B0DF1
:03FFFC000A0000F8
:020000040020DA
:08000000FFFFFFFFFFFFFFFF00
:020000040030CA
:0E000000FF281F3CFFBF85FF0FC00FE00F4021
:00000001FF
