:0400000074EF00F0A9
:100008004382FACF0BF0FBCF0CF0E9CF0DF0EACF2B
:100018000EF0E1CF0FF0E2CF10F0D9CF11F0DACF28
:1000280012F0F3CF13F0F4CF14F0F6CF15F0F7CFAA
:1000380016F0F8CF17F0F5CF18F043C019F044C008
:100048001AF045C01BF046C01CF0F2BAF2A403D067
:10005800CBEC06F01FD0F2AC1DD07AB47BA403D051
:1000680068EC07F017D07DB27EA203D08AEC06F0C8
:1000780011D07AB27BA203D074EC07F00BD09DB2FA
:100088009EA203D003EC07F005D09DB09EA002D03D
:10009800A0EC06F01CC046F01BC045F01AC044F0A6
:1000A80019C043F018C0F5FF17C0F8FF16C0F7FFD6
:1000B80015C0F6FF14C0F4FF13C0F3FF12C0DAFF37
:1000C80011C0D9FF10C0E2FF0FC0E1FF0EC0EAFF68
:1000D8000DC0E9FF0CC0FBFF0BC0FAFF43921100F3
:1000E80041EF05F0F28EF28C2AEC06F0C2EC07F034
:1000F8000009D8B466D1A7EC07F00001856F34D1A8
:100108009C0E90251D6EFF0E91211E6EF8EC05F0D9
:10011800EB0E0001686FFD0E696F90C06AF091C028
:100128006BF0D2EC02F04DD1640E000190251D6EEB
:10013800000E91211E6EF8EC05F0C30E0001686FE9
:10014800FD0E696F90C06AF091C06BF0D2EC02F0BE
:1001580038D1EE0E0001686FFE0E696FD2EC02F026
:10016800CC0E0001686FFE0E696FD2EC02F0870EAC
:100178000001686FFF0E696FD2EC02F0A20E000159
:10018800686FFF0E696FD2EC02F01BD1640E00019C
:1001980092251D6E000E93211E6EDFEC05F0600E99
:1001A8000001686FFE0E696F92C06AF093C06BF031
:1001B800D2EC02F006D19C0E000192251D6EFF0EB6
:1001C80093211E6EDFEC05F03A0E0001686FFE0EFB
:1001D800696F92C06AF093C06BF0D2EC02F0F1D074
:1001E800000E426E640E00018E251D6E000E8F21DA
:1001F8001E6E11EC06F04D0E0001686FFF0E696F60
:100208008EC06AF08FC06BF0D2EC02F0DAD0000E2C
:10021800426E9C0E00018E251D6EFF0E8F211E6EF4
:1002280011EC06F02E0E0001686FFF0E696F8EC08C
:100238006AF08FC06BF0D2EC02F0C3D0010E426EB0
:10024800100E00019C27270E9D23000E9E23000EF2
:100258009F23A90E686FFE0E696F9CC06AF09DC04F
:100268006BF09EC06CF09FC06DF0D2EC02F0A9D08C
:10027800010E426E100E00019C5F270E9D5B000E62
:100288009E5B000E9F5B860E686FFE0E696F9CC0BA
:100298006AF09DC06BF09EC06CF09FC06DF0D2EC10
:1002A80002F08FD0130E0001686FFE0E696F98C0C0
:1002B8006AF099C06BF09AC06CF09BC06DF09CC05E
:1002C8006EF09DC06FF09EC070F09FC071F0D2ECD0
:1002D80002F0C2EC07F00009D8B4E4D7A7EC07F0A5
:1002E80070D0F40E0001686FFF0E696FD2EC02F057
:1002F80068D0BCEC07F00009D8B419D09FEC07F01F
:100308000001806F6F0E8019D8A407D0F90E686FAE
:10031800FF0E696FD2EC02F00AD06C0E0001686F14
:10032800FF0E696F80C06AF06B6BD2EC02F0C2EC12
:1003380007F00009D8B4DDD7A7EC07F042D0BD0E0E
:100348000001686FFF0E696FD2EC02F03AD0FF002F
:1003580038D0D20E0001686FFF0E696F85C06AF051
:100368006B6BD2EC02F02DD0000185513F0AD8B456
:10037800F0D67A0AD8B4ADD7030AD8B45FD70B0A37
:10038800D8B42ED71E0AD8B401D7070AD8B4CCD609
:100398000E0AD8B4DCD73C0AD8B46AD70B0AD8B44A
:1003A80036D7020AD8B49DD71C0AD8B404D7070A8E
:1003B800D8B4A6D6010AD8B4BAD70F0AD8B4BFD7CA
:1003C800C8D7BCEC07F00009D8B490D69FEC07F06A
:1003D8000001856FC5D0D10E686FFF0E696FD2EC32
:1003E80002F0F3EC06F01D3A1E3AF00E1E161D50F0
:1003F8000F0B1E12F00E1D161DC081F01EC082F0DC
:100408004C0E000181251D6E040E82211E6EDFEC4C
:1004180005F06CD6D10E0001686FFF0E696FD2EC43
:1004280002F0F3EC06F01D3A1E3AF00E1E161D50AF
:100438000F0B1E12F00E1D161DC081F01EC082F09B
:100448004C0E000181251D6E040E82211E6EF8ECF3
:1004580005F04CD6000E426ED10E0001686FFF0EFB
:10046800696FD2EC02F0F3EC06F01DC083F01EC0F9
:1004780084F083C07CF084C07DF000017C1F7D1F68
:100488007C4B7D2B83C07EF084C07FF07E3B7F3B1E
:10049800F00E7F177E510F0B7F13F00E7E177C51E5
:1004A8007E277D517F234C0E7E25836F040E7F218E
:1004B800846FE30E686FFF0E696F83C06AF084C0B3
:1004C8006BF0D2EC02F083C01DF084C01EF011EC7A
:1004D80006F00CD698C094F099C095F09AC096F0A2
:1004E8009BC097F003D698C08AF099C08BF09AC049
:1004F8008CF09BC08DF0FAD598C086F099C087F033
:100508009AC088F09BC089F0F1D5010E426E94C064
:100518009CF095C09DF096C09EF097C09FF0E6D5E0
:10052800010E426E8AC09CF08BC09DF08CC09EF07C
:100538008DC09FF0DBD5010E426E86C09CF087C04F
:100548009DF088C09EF089C09FF0D0D50E0E686FD0
:10055800FF0E696F85C06AF06B6BD2EC02F0C6D5EE
:1005680000018551480AD8B4B5D7040AD8B4BBD716
:100578001E0AD8B4C1D73A0AD8B4C7D7040AD8B41F
:10058800CFD71C0AD8B427D7020AD8B4D4D7010ABF
:10059800D8B460D7070AD8B43DD7D8D76A0E0001B7
:1005A800796F000E7A6F0CD1250E7B19D8B404D060
:1005B8007B51C8EC07F004D1000E0001786F13D00E
:1005C800788911D079C0D9FF7AC0DAFFDF507B6F04
:1005D800020E7927000E7A237B51C8EC07F0F0D081
:1005E8000001788D1ED068C0F6FF69C0F7FF684B20
:1005F800692BF86A0800F5CF7BF07B51000AD8B464
:100608001200630AD8B4DED7070AD8B40AD00D0A94
:10061800D8B407D0050AD8B4D3D7190AD8B4E0D7C4
:10062800DBD778BD2ED078A90ED079C0D9FF7AC093
:10063800DAFFDECF74F0DECF75F0DECF76F0DECFF6
:1006480077F0040E0ED079C0D9FF7AC0DAFFDECF7A
:1006580074F0DDCF75F0000E75BFFF0E766F776F03
:10066800020E7927000E7A2377AF2DD0030E781368
:10067800771F761F751F746D000E752376237723F9
:1006880022D078A90ED079C0D9FF7AC0DAFFDECFA0
:1006980074F0DECF75F0DECF76F0DECF77F0040EA3
:1006A8000FD079C0D9FF7AC0DAFFDECF2BF0DDCFCB
:1006B8002CF02BC074F02CC075F0766B776B020EA3
:1006C8007927000E7A23010E7B6F0A0E7B19D8B4A6
:1006D8001BD07B51040D9B0EF324F66EFD0EF42007
:1006E800F76EF86A000EF8220900F550745D0900EB
:1006F800F55075590900F55076590900F5507759A4
:10070800D8A002D07B2BE1D778C02BF0030E2B1694
:10071800D8B403D02D0EC8EC07F000017B51726FDE
:10072800736B72BF730743D072C02BF073C02CF089
:10073800D8902B362C36D8902B362C369B0E2B2463
:10074800F66EFD0E2C20F76EF86A000EF8220900EE
:10075800F5CF21F00900F5CF22F00900F5CF23F0FD
:100768000A00F5CF24F074C01DF075C01EF076C0E5
:100778001FF077C020F0A3EC04F01DC060F01EC08D
:1007880061F01FC062F020C063F00A0E0001646FC0
:10079800000E656F000E666F000E676FE4EC04F0E4
:1007A80000016051300F7B6F7B51C8EC07F00001EE
:1007B8007207D8A073077229B7E17329D8A4B4D7F0
:1007C80068C0F6FF69C0F7FF0001684B692BF86A3B
:1007D8000800F5CF7BF07B51D8B41200E5D642046F
:1007E800D8A472D09CC003F09DC004F09EC005F050
:1007F8009FC006F0031E041E051E061E032A000ED7
:10080800042205220622000198510324076E9951FB
:100818000420086E9A510520096E9B5106200A6E25
:100828000ABE11D00A50091006E1F50E075C010E48
:100838000858D8A008D0F40E076E010E086E000EF6
:10084800096E000E0A6E0AAE12D00C0E075CFE0E80
:100858000858FF0E0958FF0E0A58D8B008D00C0ED9
:10086800076EFE0E086EFF0E096EFF0E0A6E0ABEB8
:1008780008D00A500910081010E1650E075CD8B0BE
:100888000CD00AAE1BD09C0E075CFF0E0858FF0E5A
:100898000958FF0E0A58D8B011D007C003F008C095
:1008A80004F0031E041E034A042AB80E0324016E32
:1008B8000B0E0420026E43EC06F006D00B0E026EFF
:1008C800B80E016E43EC06F000018A51985D8B5119
:1008D80099598C519A599B51800A036E8D51800AFF
:1008E8000358D8B00CD0B80E8E5D0B0E8F59D8B007
:1008F80006D00B0E026EB80E016E43EC06F0000136
:100908009851865D995187599A5188598951800A19
:10091800036E9B51800A0358D8B00CD0B90E8E5D77
:100928000B0E8F59D8A006D00B0E026EB80E016EB2
:1009380043EC06F0000EE6EC07F09E921200000E63
:10094800256E000E266E000E276E000E286E2150B2
:10095800221023102410D8B42AD0010E296E06D0F4
:10096800D8902136223623362436292A24AEF8D7C1
:10097800D890253626362736283621501D5C225039
:100988001E5823501F5824502058D8A009D0215051
:100998001D5E22501E5A23501F5A2450205A25806B
:1009A800D8902432233222322132292EE1D725C091
:1009B8001DF026C01EF027C01FF028C020F012002E
:1009C80000016451651166116711D8B424D0010E75
:1009D8002A6E06D0D89064376537663767372A2A73
:1009E80067AFF8D76451605D6551615966516259C6
:1009F80067516359D8A008D06451605F6551615B45
:100A08006651625B6751635BD890673366336533C1
:100A180064332A2EE7D760C060F061C061F062C01D
:100A280062F063C063F012000F0157510F0B050A03
:100A3800D8A41AD05751F00B0409576F010E416E14
:100A48004050D8A407D0010E00019827000E992322
:100A58009A2308D0FF0E00019827FF0E9923FF0E56
:100A68009A23FF0E9B2307D00F015751F00B05095E
:100A7800576F000E416E7B9212005E0EF66E0F0EDF
:100A8800F76E000EF86E00EE86F010EE0EF009001C
:100A9800F5CFEEFFE550E150FAE100EE94F00C0ED0
:100AA800EE6AE806FDE100EE2DF0160EEE6AE806A5
:100AB800FDE143904392000176EF00F03D50D8A449
:100AC80013D089848EC003F08FC004F0031E041E67
:100AD800034A042AFF0E0324016EFF0E0420026E4F
:100AE80013EC07F0010E08D08994630E026EBF0E56
:100AF800016E13EC07F0000E3D6E7E9212003E5020
:100B0800D8A413D0898090C003F091C004F0031ECC
:100B1800041E034A042AFF0E0324016EFF0E04205C
:100B2800026E5AEC07F0010E08D08990630E026E2F
:100B3800BF0E016E5AEC07F0000E3E6E9E9012003A
:100B48003F50D8A413D0898292C003F093C004F018
:100B5800031E041E034A042AFF0E0324016EFF0E1F
:100B68000420026EE1EC07F0010E08D08992630EB2
:100B7800026EBF0E016EE1EC07F0000E3F6EF294BC
:100B88001200D59CD768FE0ED66ED650D7CF1FF070
:100B9800206A1FC020F01F6A1F10396E20503A6E5D
:100BA800F294F28A480E1D6E0B0E1E6EDCEC07F0F6
:100BB800920ED56E12004C0E1D5C040E1E58D8B055
:100BC80004D0040E1E6E4C0E09D0250E1D5C130EAB
:100BD8001E58D8A004D0130E1E6E240E1D6E1DC004
:100BE80092F01EC093F012004C0E1D5C040E1E58AD
:100BF800D8B004D0040E1E6E4C0E09D0250E1D5C14
:100C0800130E1E58D8A004D0130E1E6E240E1D6E8F
:100C18001DC090F01EC091F01200C40E1D5C090E9C
:100C28001E58D8B004D0090E1E6EC40E09D0AD0EE1
:100C38001D5C0D0E1E58D8A004D00D0E1E6EAC0EF5
:100C48001D6E1DC08EF01EC08FF01200EAEC07F07A
:100C580073EC06F096EC07F03EEC07F04CEC07F06E
:100C680022EC07F05CEC06F030EC07F0B6EC06F08E
:100C7800C5EC05F08BEC07F080EC07F01200C40E11
:100C8800015C090E0258D8B004D0090E026EC40ED9
:100C980009D0AD0E015C0D0E0258D8A004D00D0E7F
:100CA800026EAC0E016E01C08EF002C08FF0120011
:100CB800000E0F014D6FE00E506F000E4F6F4FCFBB
:100CC80031F050CF32F07E927D82C40E1D6E0A0E36
:100CD8001E6ECDEC07F0310E0F014E6F1200000EA4
:100CE800896E000E8A6E000E8B6EF80E926EBF0E25
:100CF800936EBF0E946E3C0E0F013A6F3E0E396F25
:100D08002F0E386F000E616EF18E12007E9231C088
:100D180001F032C002F013EC07F02F503010D8B4B5
:100D2800120001D812000500FA6E2F50FD6E3050E7
:100D3800FE6EFF6AFA5012009E9035C001F036C070
:100D480002F05AEC07F033503410D8B4120001D82E
:100D580012000500FA6E3350FD6E3450FE6EFF6AC5
:100D6800FA501200000ECC6E630ECF6EC00ECE6E1F
:100D7800CECF35F0CFCF36F09E909D80060E1D6EFB
:100D88000B0E1E6ED7EC07F0310ECD6E1200F294EA
:100D98003A50D76E39C0D6FF3B503C10D8B4120039
:100DA80001D812000500FA6E3B50FD6E3C50FE6EF5
:100DB800FF6AFA5012000F0154510F0B050AD8A40C
:100DC80006D05451F00B0409546F010E05D054514C
:100DD800F00B0509546F000E406E7B941200BCECBA
:100DE80007F00009D8B4FBD79FEC07F01F6E1F501F
:100DF800206E216A20C01DF021C01EF012009E92B4
:100E08002D502E10D8B4120001D812000500FA6E29
:100E18002D50FD6E2E50FE6EFF6AFA5012000F0123
:100E28004EA507D04E910250506F01C04FFF4E8122
:100E380012000250506F01C04FFF1200000EB46E36
:100E4800000EB36E000EB26EB2CF37F0B3CF38F0EB
:100E5800A192010EB16E1200BB68000EBC6E9E928C
:100E68009D82E60E1D6E070E1E6ED2EC07F0060E72
:100E7800BA6E1200050E0F01546F000E556F000E6A
:100E8800566F4851F30B0409486F7B947A8412001B
:100E9800050E0F01576F000E586F000E596F48511D
:100EA800FC0B0109486F7B927A821200CDA407D00F
:100EB800CD900250CF6E01C0CEFFCD8012000250FF
:100EC800CF6E01C0CEFF12007B9455CF03F056CFF2
:100ED80004F003C001F004C002F0DFEC06F01200D9
:100EE8007B9258CF03F059CF04F003C001F004C03F
:100EF80002F018EC05F01200080E706E900E716E7C
:100F0800240E726E8A0E756E000E766E1200080E32
:100F1800B86E900EAB6E240EAC6E8A0EAF6E000EDD
:100F2800B06E1200700ED36E040ED26E400E9B6E21
:100F3800D2BE1200FDD79EAAFED7ABA202D0AB98B4
:100F4800AB88AE501200A4AAFED771A202D0719845
:100F5800718874501200A08601006079FEFFB80BFA
:100F6800B80BB80B1D6EA4A8FED71DC073FF1200E6
:100F78009EAA02D0010E1200000E1200A4AA02D0EE
:100F8800010E1200000E12001E6E1E50B6EC07F085
:100F980012001DC02FF01EC030F012001DC02DF031
:100FA8001EC02EF012001DC033F01EC034F0120017
:100FB8001DC03BF01EC03CF012000250D76E01C0AD
:100FC800D6FF1200016E01C0BCFF1200D09E1200B5
:10FD9A0000010000000A00000064000000E80300FF
:10FDAA000010270000A086010040420F00809698AC
:10FDBA000000E1F50500CA9A3B44656372656D650A
:10FDCA006E74696E67205069746368205365727631
:10FDDA006F20506F736974696F6E3A2025750D0A2A
:10FDEA0000496E6372656D656E74696E672050694D
:10FDFA0074636820536572766F20506F73697469F3
:10FE0A006F6E3A2025750D0A00456E636F64657240
:10FE1A0020506F736974696F6E3A20256C642020D4
:10FE2A0020536574506F696E743A256C640D0A002C
:10FE3A0044656372656D656E74696E672059617792
:10FE4A0020536572766F20506F736974696F6E3ACA
:10FE5A002025750D0A00496E6372656D656E7469B9
:10FE6A006E672059617720536572766F20506F73E1
:10FE7A006974696F6E3A2025750D0A0044656372CC
:10FE8A00656D656E74696E67204D6F746F7220536D
:10FE9A006574706F696E743A20256C640D0A0049A6
:10FEAA006E6372656D656E74696E67204D6F746FEF
:10FEBA007220536574706F696E743A20256C640DF4
:10FECA000A00436F6E6E6563742052413020746F6E
:10FEDA0020506974636820536572766F2044617498
:10FEEA00610D0A00436F6E6E6563742052413120C2
:10FEFA00746F2059617720536572766F204461745C
:10FF0A00610D0A00556E6B6E6F776E206F72204915
:10FF1A006E76616C696420436F6D6D616E64202535
:10FF2A00630D0A0044656372656D656E74696E6778
:10FF3A00204D6F746F722053706565643A20257581
:10FF4A000D0A00496E6372656D656E74696E67208D
:10FF5A004D6F746F722053706565643A2025750D74
:10FF6A000A005265636569766564202575206672A4
:10FF7A006F6D20455553415254310D0A00436F6E3F
:10FF8A006E6563742052423020746F20456E636F31
:10FF9A0064657220410D0A00436F6E6E65637420BA
:10FFAA0052413420746F20456E636F64657220423B
:10FFBA000D0A000A0A0A0A0A0A0A0A0A0A0A0A0A9E
:10FFCA000A0A0A0A0A0A0A00556E6B6E6F776E20D1
:10FFDA006B65792025630D0A0044617461204269CA
:10FFEA00747320732025690D0A00206B0D0A006FB7
:05FFFA006B0D0A000080
:020000040020DA
:08000000FFFFFFFFFFFFFFFF00
:020000040030CA
:0E000000FF281F3CFFBF85FF0FC00FE00F4021
:00000001FF
